:100000000C942A000C9434000C9434000C943400AA
:100010000C9434000C9434000C9434000C94340090
:100020000C9434000C9434000C9434000C94340080
:100030000C9434000C9434000C9434000C94340070
:100040000C9434000C9434000C9434000C94340060
:100050000C94340011241FBECFE5D8E0DEBFCDBF25
:100060000E9456000C945B000C9400008FEF87BB3D
:1000700008958FEF88BB80E69AEE0197F1F720E0B4
:100080003FEF40E65AEE283018F488B3880F04C0DA
:10009000283021F088B3869588BB01C038BBCA01DF
:1000A0000197F1F72F5F213171F708958FEF87BB2B
:0A00B0000E943900FDCFF894FFCF45
:00000001FF
