:100000000C942A000C9447000C9447000C94470071
:100010000C9447000C9447000C9447000C94470044
:100020000C9447000C9447000C9447000C94470034
:100030000C9447000C9447000C9447000C94470024
:100040000C9447000C9447000C9447000C94470014
:100050000C94470011241FBECFE5D8E0DEBFCDBF12
:1000600010E0A0E6B0E0ECEFF0E002C005900D92E9
:10007000A836B107D9F710E0A8E6B0E001C01D929C
:10008000AA36B107E1F70E9471000C947C000C9431
:1000900000008FEF87BB84BB0895CF93DF93C0E64A
:1000A000D0E0A4E6B0E020E030E049E150E00FC04D
:1000B000888185BB8C9188BB88E893E1FA013197F0
:1000C000F1F70197D9F72F5F3F4F21961196243012
:1000D000310574F33093690020936800DF91CF916C
:1000E00008958FEF87BB84BB0E944D00FDCFDC01DC
:0C00F000FA016C9320830895F894FFCF70
:0800FC00C0F9A4300804020160
:00000001FF
