:1000000014C02EC02DC02CC02BC02AC029C028C0AF
:1000100027C026C025C024C023C022C021C020C0C4
:100020001FC01EC01DC01CC01BC011241FBECFE5B9
:10003000D2E0DEBFCDBF10E0A0E6B0E0ECE6F1E03C
:1000400002C005900D92A837B107D9F710E0A8E7D4
:10005000B0E001C01D92AE37B107E1F780D084C097
:10006000CFCF8FEF87BB84BB0895FC0148B380815D
:10007000918121E030E0D90102C0AA0FBB1F8A950F
:10008000E2F74A2B48BB65BB8AEF90E00197F1F796
:1000900048B38081918102C0220F331F8A95E2F715
:1000A0002095242328BB0895CF93DF93EC01109271
:1000B0007D0010927C0045C010927B0010927A0067
:1000C00030C010927900109278001BC0E0917C0043
:1000D000F0917D00EE0FFF1FEE0FFF1FEC0FFD1FD5
:1000E000E80FF91F880F991F805A9F4F6081BDDF6D
:1000F0008091780090917900019690937900809397
:100100007800809178009091790084309105F4F224
:1001100080917A0090917B00019690937B00809370
:100120007A0080917A0090917B008F5091404CF240
:1001300080917C0090917D00019690937D0080934A
:100140007C0080917C0090917D0004970CF4B4CFEA
:10015000DF91CF91089588E690E0A6DF08958FEFB4
:0C01600087BB84BBF8DFFECFF894FFCF14
:10016C000000010002000300C0FFFFFFF9C0FFFF09
:08017C00A4F9C0FFB0A4F9C012
:00000001FF
