:100000000C942A000C943C000C943C000C943C0092
:100010000C943C000C943C000C943C000C943C0070
:100020000C943C000C943C000C943C000C943C0060
:100030000C943C000C943C000C943C000C943C0050
:100040000C943C000C943C000C943C000C943C0040
:100050000C943C0011241FBECFE5D8E0DEBFCDBF1D
:1000600010E0A0E6B0E001C01D92A236B107E1F7B2
:100070000E947C000C9482000C9400008FEF87BBE0
:1000800084BB08950F931F9321E030E004E07BEDE3
:1000900012E06FEBB1E0A8E049E150E023C022306C
:1000A000310581F02330310524F42130310589F404
:1000B00007C02330310541F02430310551F407C029
:1000C000A8BB03C008BB04C018BB65BB02C0B8BB5B
:1000D00075BB80E197E2FA013197F1F70197D9F703
:1000E0002F5F3F4F25303105D4F2309361002093CC
:1000F00060001F910F9108958FEF87BB84BB0E9412
:080100004200FDCFF894FFCF8F
:00000001FF
