:100000000C942A000C9447000C9447000C94470071
:100010000C9447000C9447000C9447000C94470044
:100020000C9447000C9447000C9447000C94470034
:100030000C9447000C9447000C9447000C94470024
:100040000C9447000C9447000C9447000C94470014
:100050000C94470011241FBECFE5D4E0DEBFCDBF16
:1000600010E0A0E6B0E0EAEAF3E002C005900D92ED
:10007000A038B107D9F710E0A0E8B0E001C01D92A8
:10008000AC38B107E1F70E94CE010C94D3010C9477
:100090000000662311F0A89A01C0A898A998A49A14
:1000A000A59AA69AA79AAF98AE98AD98AC9887FDF6
:1000B000AF9A86FDAE9A85FDAD9A84FDAC9AAA9A58
:1000C00000C0AA98AF98AE98AD98AC9883FDAF9A4F
:1000D00082FDAE9A81FDAD9A80FDAC9AAA9A00C0CD
:1000E000AA98AC9AAD9AAE9AAF9A0895882311F067
:1000F000A89A01C0A898A99AA498A598A698A79884
:10010000AA9A00C09C9B02C080E101C080E09D993A
:1001100080629E9980649F998068AA9800C0AA9A7C
:1001200000C09C9981609D9982609E9984609F998E
:100130008860AA98089580E00E94760087FDFBCF32
:1001400082E090E00197F1F780E00E947600089548
:100150001F93182F0E949B00812F60E00E9449008E
:100160001F9108951F93182F0E949B00812F61E01B
:100170000E9449001F910895662311F4805801C020
:1001800080540E94A80008950E949B0090E008956A
:1001900081E00E94A800089582E00E94A8000895CE
:1001A0001F93182F0E949B001A3059F4803410F0CE
:1001B00080E001C080E490E080589F4F0E94A8003A
:1001C00004C0812F61E00E9449001F910895CF93E0
:1001D000DF93EC0102C00E94D00089918823D9F7F7
:1001E000DF91CF910895CF93DF93EC0102C00E947D
:1001F000D000FE01219684918823C9F7DF91CF9129
:1002000008951F93182FA09AA19AA29AA49AA59A2A
:10021000A69AA79A80E89EE30197F1F7AD9AAC9A67
:10022000AA9A00C0AA9880E893E10197F1F7AA9AE8
:1002300000C0AA9880E490E0FC013197F1F7AA9AF7
:1002400000C0AA98FC013197F1F7AC98AA9A00C0B7
:10025000AA980197F1F788E20E94A80088E00E941E
:10026000A8000E94C80086E00E94A800812F0E947A
:10027000A8001F9108958FE08ABB8FEF87BB84BBD6
:1002800080EF8BBB8EE00E94010180E060E00E9465
:10029000BC0080E690E00E94E7000895CF93DF93D2
:1002A0008FEF8BBBA0E060E070E0C0E8D0E08BB3E4
:1002B000880F8BBB662351F4FB01EE0FFF1FEE0F7F
:1002C000FF1FE159FF4F40E050E002C0D89AF4CF41
:1002D00089B39E01042E02C0359527950A94E2F752
:1002E00090E028233923232B09F4A0814F5F5F4F2F
:1002F00031964430510561F789B3807F803FE1F743
:100300006F5F7F4F6430710591F68A2FDF91CF9137
:1003100008950E94C80080E060E00E94BC0080E672
:1003200090E00E94E7008AE0E2E8F0E0DF011D9241
:100330008A95E9F7109281001092800008951F932A
:100340008091800061E00E94BC000E944E01182F45
:10035000882311F1992787FD9095C0970A97E0F4BB
:10036000809180008A3019F40E94890115C061E0F3
:100370000E94BC00812F0E94D00080918100E82F54
:10038000F0E0EE57FF4F1083909180009F5F9093B5
:1003900080008F5F809381001F9108950E943B0130
:0A03A0000E949F01FDCFF894FFCFEB
:1003AA0050524F4752414D204B4559504144002F1E
:1003BA003938372A3635342D3332312B3D30630004
:00000001FF
