:100000000C942A000C943F000C943F000C943F0089
:100010000C943F000C943F000C943F000C943F0064
:100020000C943F000C943F000C943F000C943F0054
:100030000C943F000C943F000C943F000C943F0044
:100040000C943F000C943F000C943F000C943F0034
:100050000C943F0011241FBECFE5D4E0DEBFCDBF1E
:1000600010E0A0E6B0E0ECE0F3E002C005900D92F5
:10007000A837B107D9F70E947F010C9484010C9432
:100080000000662311F0A89A01C0A898A998A49A24
:10009000A59AA69AA79AAF98AE98AD98AC9887FD06
:1000A000AF9A86FDAE9A85FDAD9A84FDAC9AAA9A68
:1000B00000C0AA98AF98AE98AD98AC9883FDAF9A5F
:1000C00082FDAE9A81FDAD9A80FDAC9AAA9A00C0DD
:1000D000AA98AC9AAD9AAE9AAF9A0895882311F077
:1000E000A89A01C0A898A99AA498A598A698A79894
:1000F000AA9A00C09C9B02C080E101C080E09D994B
:1001000080629E9980649F998068AA9800C0AA9A8C
:1001100000C09C9981609D9982609E9984609F999E
:100120008860AA98089580E00E946E0087FDFBCF4A
:1001300082E090E00197F1F780E00E946E00089560
:100140001F93182F0E949300812F60E00E944100AE
:100150001F9108951F93182F0E949300812F61E033
:100160000E9441001F910895662311F4805801C038
:1001700080540E94A00008950E94930090E008958A
:1001800081E00E94A000089582E00E94A0000895EE
:100190001F93182F0E9493001A3059F4803410F0E6
:1001A00080E001C080E490E080589F4F0E94A00052
:1001B00004C0812F61E00E9441001F910895CF93F8
:1001C000DF93EC0102C00E94C80089918823D9F70F
:1001D000DF91CF910895CF93DF93EC0102C00E948D
:1001E000C800FE01219684918823C9F7DF91CF9141
:1001F00008951F93182FA09AA19AA29AA49AA59A3B
:10020000A69AA79A80E89EE30197F1F7AD9AAC9A77
:10021000AA9A00C0AA9880E893E10197F1F7AA9AF8
:1002200000C0AA9880E490E0FC013197F1F7AA9A07
:1002300000C0AA98FC013197F1F7AC98AA9A00C0C7
:10024000AA980197F1F788E20E94A00088E00E9436
:10025000A0000E94C00086E00E94A000812F0E94A2
:10026000A0001F9108958FE08ABB8FEF87BB84BBEE
:1002700080EF8BBB8CE00E94F90080E060E00E9480
:10028000B40080E690E00E94DF0008958FEF8BBB02
:10029000E0E060E870E08BB3880F8BBBE111D89A87
:1002A00040E050E089B39B01042E02C035952795AC
:1002B0000A94E2F790E028233923232B59F4F0E045
:1002C000EE0FFF1FEE0FFF1FE40FF51FE959FF4F61
:1002D000808108954F5F5F4F4430510519F7EF5FFC
:1002E000E430C9F680E0089586E060E00E94B40042
:1002F0000E944601882311F00E94C80008950E94C0
:0C03000033010E947401FDCFF894FFCF80
:10030C006B6579203D20002F3938372A3635342D4E
:08031C003332312B3D30630048
:00000001FF
